{
  "_format": "hh-sol-artifact-1",
  "contractName": "CreatorChainNFT",
  "sourceName": "contracts/NFT.sol",
  "abi": [
    {
      "inputs": [],
      "stateMutability": "nonpayable",
      "type": "constructor"
    },
    {
      "anonymous": false,
      "inputs": [
        {
          "indexed": true,
          "internalType": "address",
          "name": "owner",
          "type": "address"
        },
        {
          "indexed": true,
          "internalType": "address",
          "name": "approved",
          "type": "address"
        },
        {
          "indexed": true,
          "internalType": "uint256",
          "name": "tokenId",
          "type": "uint256"
        }
      ],
      "name": "Approval",
      "type": "event"
    },
    {
      "anonymous": false,
      "inputs": [
        {
          "indexed": true,
          "internalType": "address",
          "name": "owner",
          "type": "address"
        },
        {
          "indexed": true,
          "internalType": "address",
          "name": "operator",
          "type": "address"
        },
        {
          "indexed": false,
          "internalType": "bool",
          "name": "approved",
          "type": "bool"
        }
      ],
      "name": "ApprovalForAll",
      "type": "event"
    },
    {
      "anonymous": false,
      "inputs": [
        {
          "indexed": true,
          "internalType": "address",
          "name": "from",
          "type": "address"
        },
        {
          "indexed": true,
          "internalType": "address",
          "name": "to",
          "type": "address"
        },
        {
          "indexed": true,
          "internalType": "uint256",
          "name": "tokenId",
          "type": "uint256"
        }
      ],
      "name": "Transfer",
      "type": "event"
    },
    {
      "inputs": [
        {
          "internalType": "address",
          "name": "to",
          "type": "address"
        },
        {
          "internalType": "uint256",
          "name": "tokenId",
          "type": "uint256"
        }
      ],
      "name": "approve",
      "outputs": [],
      "stateMutability": "nonpayable",
      "type": "function"
    },
    {
      "inputs": [
        {
          "internalType": "address",
          "name": "owner",
          "type": "address"
        }
      ],
      "name": "balanceOf",
      "outputs": [
        {
          "internalType": "uint256",
          "name": "",
          "type": "uint256"
        }
      ],
      "stateMutability": "view",
      "type": "function"
    },
    {
      "inputs": [
        {
          "internalType": "uint256",
          "name": "tokenId",
          "type": "uint256"
        }
      ],
      "name": "getApproved",
      "outputs": [
        {
          "internalType": "address",
          "name": "",
          "type": "address"
        }
      ],
      "stateMutability": "view",
      "type": "function"
    },
    {
      "inputs": [
        {
          "internalType": "address",
          "name": "owner",
          "type": "address"
        },
        {
          "internalType": "address",
          "name": "operator",
          "type": "address"
        }
      ],
      "name": "isApprovedForAll",
      "outputs": [
        {
          "internalType": "bool",
          "name": "",
          "type": "bool"
        }
      ],
      "stateMutability": "view",
      "type": "function"
    },
    {
      "inputs": [
        {
          "internalType": "address",
          "name": "recipient",
          "type": "address"
        }
      ],
      "name": "mintNFT",
      "outputs": [
        {
          "internalType": "uint256",
          "name": "",
          "type": "uint256"
        }
      ],
      "stateMutability": "nonpayable",
      "type": "function"
    },
    {
      "inputs": [],
      "name": "name",
      "outputs": [
        {
          "internalType": "string",
          "name": "",
          "type": "string"
        }
      ],
      "stateMutability": "view",
      "type": "function"
    },
    {
      "inputs": [
        {
          "internalType": "uint256",
          "name": "tokenId",
          "type": "uint256"
        }
      ],
      "name": "ownerOf",
      "outputs": [
        {
          "internalType": "address",
          "name": "",
          "type": "address"
        }
      ],
      "stateMutability": "view",
      "type": "function"
    },
    {
      "inputs": [
        {
          "internalType": "address",
          "name": "from",
          "type": "address"
        },
        {
          "internalType": "address",
          "name": "to",
          "type": "address"
        },
        {
          "internalType": "uint256",
          "name": "tokenId",
          "type": "uint256"
        }
      ],
      "name": "safeTransferFrom",
      "outputs": [],
      "stateMutability": "nonpayable",
      "type": "function"
    },
    {
      "inputs": [
        {
          "internalType": "address",
          "name": "from",
          "type": "address"
        },
        {
          "internalType": "address",
          "name": "to",
          "type": "address"
        },
        {
          "internalType": "uint256",
          "name": "tokenId",
          "type": "uint256"
        },
        {
          "internalType": "bytes",
          "name": "_data",
          "type": "bytes"
        }
      ],
      "name": "safeTransferFrom",
      "outputs": [],
      "stateMutability": "nonpayable",
      "type": "function"
    },
    {
      "inputs": [
        {
          "internalType": "address",
          "name": "operator",
          "type": "address"
        },
        {
          "internalType": "bool",
          "name": "approved",
          "type": "bool"
        }
      ],
      "name": "setApprovalForAll",
      "outputs": [],
      "stateMutability": "nonpayable",
      "type": "function"
    },
    {
      "inputs": [
        {
          "internalType": "bytes4",
          "name": "interfaceId",
          "type": "bytes4"
        }
      ],
      "name": "supportsInterface",
      "outputs": [
        {
          "internalType": "bool",
          "name": "",
          "type": "bool"
        }
      ],
      "stateMutability": "view",
      "type": "function"
    },
    {
      "inputs": [],
      "name": "symbol",
      "outputs": [
        {
          "internalType": "string",
          "name": "",
          "type": "string"
        }
      ],
      "stateMutability": "view",
      "type": "function"
    },
    {
      "inputs": [
        {
          "internalType": "uint256",
          "name": "tokenId",
          "type": "uint256"
        }
      ],
      "name": "tokenURI",
      "outputs": [
        {
          "internalType": "string",
          "name": "",
          "type": "string"
        }
      ],
      "stateMutability": "view",
      "type": "function"
    },
    {
      "inputs": [
        {
          "internalType": "address",
          "name": "from",
          "type": "address"
        },
        {
          "internalType": "address",
          "name": "to",
          "type": "address"
        },
        {
          "internalType": "uint256",
          "name": "tokenId",
          "type": "uint256"
        }
      ],
      "name": "transferFrom",
      "outputs": [],
      "stateMutability": "nonpayable",
      "type": "function"
    }
  ],
  "bytecode": "0x60806040523480156200001157600080fd5b506040518060400160405280600f81526020017f43726561746f72436861696e4e465400000000000000000000000000000000008152506040518060400160405280600581526020017f43434e4654000000000000000000000000000000000000000000000000000000815250816000908051906020019062000096929190620000b8565b508060019080519060200190620000af929190620000b8565b505050620001cd565b828054620000c69062000168565b90600052602060002090601f016020900481019282620000ea576000855562000136565b82601f106200010557805160ff191683800117855562000136565b8280016001018555821562000136579182015b828111156200013557825182559160200191906001019062000118565b5b50905062000145919062000149565b5090565b5b80821115620001645760008160009055506001016200014a565b5090565b600060028204905060018216806200018157607f821691505b602082108114156200019857620001976200019e565b5b50919050565b7f4e487b7100000000000000000000000000000000000000000000000000000000600052602260045260246000fd5b6125fb80620001dd6000396000f3fe608060405234801561001057600080fd5b50600436106100ea5760003560e01c80636352211e1161008c578063a22cb46511610066578063a22cb4651461026f578063b88d4fde1461028b578063c87b56dd146102a7578063e985e9c5146102d7576100ea565b80636352211e146101f157806370a082311461022157806395d89b4114610251576100ea565b8063095ea7b3116100c8578063095ea7b31461016d57806323b872dd1461018957806342842e0e146101a557806354ba0f27146101c1576100ea565b806301ffc9a7146100ef57806306fdde031461011f578063081812fc1461013d575b600080fd5b610109600480360381019061010491906118cb565b610307565b6040516101169190611fc3565b60405180910390f35b6101276103e9565b6040516101349190611fde565b60405180910390f35b6101576004803603810190610152919061191d565b61047b565b6040516101649190611f5c565b60405180910390f35b6101876004803603810190610182919061188f565b610500565b005b6101a3600480360381019061019e9190611789565b610618565b005b6101bf60048036038101906101ba9190611789565b610678565b005b6101db60048036038101906101d69190611724565b610698565b6040516101e891906121c0565b60405180910390f35b61020b6004803603810190610206919061191d565b6106cb565b6040516102189190611f5c565b60405180910390f35b61023b60048036038101906102369190611724565b61077d565b60405161024891906121c0565b60405180910390f35b610259610835565b6040516102669190611fde565b60405180910390f35b61028960048036038101906102849190611853565b6108c7565b005b6102a560048036038101906102a091906117d8565b610a48565b005b6102c160048036038101906102bc919061191d565b610aaa565b6040516102ce9190611fde565b60405180910390f35b6102f160048036038101906102ec919061174d565b610b51565b6040516102fe9190611fc3565b60405180910390f35b60007f80ac58cd000000000000000000000000000000000000000000000000000000007bffffffffffffffffffffffffffffffffffffffffffffffffffffffff1916827bffffffffffffffffffffffffffffffffffffffffffffffffffffffff191614806103d257507f5b5e139f000000000000000000000000000000000000000000000000000000007bffffffffffffffffffffffffffffffffffffffffffffffffffffffff1916827bffffffffffffffffffffffffffffffffffffffffffffffffffffffff1916145b806103e257506103e182610be5565b5b9050919050565b6060600080546103f8906123f0565b80601f0160208091040260200160405190810160405280929190818152602001828054610424906123f0565b80156104715780601f1061044657610100808354040283529160200191610471565b820191906000526020600020905b81548152906001019060200180831161045457829003601f168201915b5050505050905090565b600061048682610c4f565b6104c5576040517f08c379a00000000000000000000000000000000000000000000000000000000081526004016104bc90612120565b60405180910390fd5b6004600083815260200190815260200160002060009054906101000a900473ffffffffffffffffffffffffffffffffffffffff169050919050565b600061050b826106cb565b90508073ffffffffffffffffffffffffffffffffffffffff168373ffffffffffffffffffffffffffffffffffffffff16141561057c576040517f08c379a000000000000000000000000000000000000000000000000000000000815260040161057390612180565b60405180910390fd5b8073ffffffffffffffffffffffffffffffffffffffff1661059b610cbb565b73ffffffffffffffffffffffffffffffffffffffff1614806105ca57506105c9816105c4610cbb565b610b51565b5b610609576040517f08c379a0000000000000000000000000000000000000000000000000000000008152600401610600906120a0565b60405180910390fd5b6106138383610cc3565b505050565b610629610623610cbb565b82610d7c565b610668576040517f08c379a000000000000000000000000000000000000000000000000000000000815260040161065f906121a0565b60405180910390fd5b610673838383610e5a565b505050565b61069383838360405180602001604052806000815250610a48565b505050565b60008060065490506106aa83826110b6565b600660008154809291906106bd90612422565b919050555080915050919050565b6000806002600084815260200190815260200160002060009054906101000a900473ffffffffffffffffffffffffffffffffffffffff169050600073ffffffffffffffffffffffffffffffffffffffff168173ffffffffffffffffffffffffffffffffffffffff161415610774576040517f08c379a000000000000000000000000000000000000000000000000000000000815260040161076b906120e0565b60405180910390fd5b80915050919050565b60008073ffffffffffffffffffffffffffffffffffffffff168273ffffffffffffffffffffffffffffffffffffffff1614156107ee576040517f08c379a00000000000000000000000000000000000000000000000000000000081526004016107e5906120c0565b60405180910390fd5b600360008373ffffffffffffffffffffffffffffffffffffffff1673ffffffffffffffffffffffffffffffffffffffff168152602001908152602001600020549050919050565b606060018054610844906123f0565b80601f0160208091040260200160405190810160405280929190818152602001828054610870906123f0565b80156108bd5780601f10610892576101008083540402835291602001916108bd565b820191906000526020600020905b8154815290600101906020018083116108a057829003601f168201915b5050505050905090565b6108cf610cbb565b73ffffffffffffffffffffffffffffffffffffffff168273ffffffffffffffffffffffffffffffffffffffff16141561093d576040517f08c379a000000000000000000000000000000000000000000000000000000000815260040161093490612060565b60405180910390fd5b806005600061094a610cbb565b73ffffffffffffffffffffffffffffffffffffffff1673ffffffffffffffffffffffffffffffffffffffff16815260200190815260200160002060008473ffffffffffffffffffffffffffffffffffffffff1673ffffffffffffffffffffffffffffffffffffffff16815260200190815260200160002060006101000a81548160ff0219169083151502179055508173ffffffffffffffffffffffffffffffffffffffff166109f7610cbb565b73ffffffffffffffffffffffffffffffffffffffff167f17307eab39ab6107e8899845ad3d59bd9653f200f220920489ca2b5937696c3183604051610a3c9190611fc3565b60405180910390a35050565b610a59610a53610cbb565b83610d7c565b610a98576040517f08c379a0000000000000000000000000000000000000000000000000000000008152600401610a8f906121a0565b60405180910390fd5b610aa484848484611284565b50505050565b6060610ab582610c4f565b610af4576040517f08c379a0000000000000000000000000000000000000000000000000000000008152600401610aeb90612160565b60405180910390fd5b6000610afe6112e0565b90506000815111610b1e5760405180602001604052806000815250610b49565b80610b28846112f7565b604051602001610b39929190611f38565b6040516020818303038152906040525b915050919050565b6000600560008473ffffffffffffffffffffffffffffffffffffffff1673ffffffffffffffffffffffffffffffffffffffff16815260200190815260200160002060008373ffffffffffffffffffffffffffffffffffffffff1673ffffffffffffffffffffffffffffffffffffffff16815260200190815260200160002060009054906101000a900460ff16905092915050565b60007f01ffc9a7000000000000000000000000000000000000000000000000000000007bffffffffffffffffffffffffffffffffffffffffffffffffffffffff1916827bffffffffffffffffffffffffffffffffffffffffffffffffffffffff1916149050919050565b60008073ffffffffffffffffffffffffffffffffffffffff166002600084815260200190815260200160002060009054906101000a900473ffffffffffffffffffffffffffffffffffffffff1673ffffffffffffffffffffffffffffffffffffffff1614159050919050565b600033905090565b816004600083815260200190815260200160002060006101000a81548173ffffffffffffffffffffffffffffffffffffffff021916908373ffffffffffffffffffffffffffffffffffffffff160217905550808273ffffffffffffffffffffffffffffffffffffffff16610d36836106cb565b73ffffffffffffffffffffffffffffffffffffffff167f8c5be1e5ebec7d5bd14f71427d1e84f3dd0314c0f7b2291e5b200ac8c7c3b92560405160405180910390a45050565b6000610d8782610c4f565b610dc6576040517f08c379a0000000000000000000000000000000000000000000000000000000008152600401610dbd90612080565b60405180910390fd5b6000610dd1836106cb565b90508073ffffffffffffffffffffffffffffffffffffffff168473ffffffffffffffffffffffffffffffffffffffff161480610e4057508373ffffffffffffffffffffffffffffffffffffffff16610e288461047b565b73ffffffffffffffffffffffffffffffffffffffff16145b80610e515750610e508185610b51565b5b91505092915050565b8273ffffffffffffffffffffffffffffffffffffffff16610e7a826106cb565b73ffffffffffffffffffffffffffffffffffffffff1614610ed0576040517f08c379a0000000000000000000000000000000000000000000000000000000008152600401610ec790612140565b60405180910390fd5b600073ffffffffffffffffffffffffffffffffffffffff168273ffffffffffffffffffffffffffffffffffffffff161415610f40576040517f08c379a0000000000000000000000000000000000000000000000000000000008152600401610f3790612040565b60405180910390fd5b610f4b8383836114a4565b610f56600082610cc3565b6001600360008573ffffffffffffffffffffffffffffffffffffffff1673ffffffffffffffffffffffffffffffffffffffff1681526020019081526020016000206000828254610fa69190612306565b925050819055506001600360008473ffffffffffffffffffffffffffffffffffffffff1673ffffffffffffffffffffffffffffffffffffffff1681526020019081526020016000206000828254610ffd919061227f565b92505081905550816002600083815260200190815260200160002060006101000a81548173ffffffffffffffffffffffffffffffffffffffff021916908373ffffffffffffffffffffffffffffffffffffffff160217905550808273ffffffffffffffffffffffffffffffffffffffff168473ffffffffffffffffffffffffffffffffffffffff167fddf252ad1be2c89b69c2b068fc378daa952ba7f163c4a11628f55a4df523b3ef60405160405180910390a4505050565b600073ffffffffffffffffffffffffffffffffffffffff168273ffffffffffffffffffffffffffffffffffffffff161415611126576040517f08c379a000000000000000000000000000000000000000000000000000000000815260040161111d90612100565b60405180910390fd5b61112f81610c4f565b1561116f576040517f08c379a000000000000000000000000000000000000000000000000000000000815260040161116690612020565b60405180910390fd5b61117b600083836114a4565b6001600360008473ffffffffffffffffffffffffffffffffffffffff1673ffffffffffffffffffffffffffffffffffffffff16815260200190815260200160002060008282546111cb919061227f565b92505081905550816002600083815260200190815260200160002060006101000a81548173ffffffffffffffffffffffffffffffffffffffff021916908373ffffffffffffffffffffffffffffffffffffffff160217905550808273ffffffffffffffffffffffffffffffffffffffff16600073ffffffffffffffffffffffffffffffffffffffff167fddf252ad1be2c89b69c2b068fc378daa952ba7f163c4a11628f55a4df523b3ef60405160405180910390a45050565b61128f848484610e5a565b61129b848484846114a9565b6112da576040517f08c379a00000000000000000000000000000000000000000000000000000000081526004016112d190612000565b60405180910390fd5b50505050565b606060405180602001604052806000815250905090565b6060600082141561133f576040518060400160405280600181526020017f3000000000000000000000000000000000000000000000000000000000000000815250905061149f565b600082905060005b6000821461137157808061135a90612422565b915050600a8261136a91906122d5565b9150611347565b60008167ffffffffffffffff8111156113b3577f4e487b7100000000000000000000000000000000000000000000000000000000600052604160045260246000fd5b6040519080825280601f01601f1916602001820160405280156113e55781602001600182028036833780820191505090505b5090505b60008514611498576001826113fe9190612306565b9150600a8561140d919061246b565b6030611419919061227f565b60f81b818381518110611455577f4e487b7100000000000000000000000000000000000000000000000000000000600052603260045260246000fd5b60200101907effffffffffffffffffffffffffffffffffffffffffffffffffffffffffffff1916908160001a905350600a8561149191906122d5565b94506113e9565b8093505050505b919050565b505050565b60006114ca8473ffffffffffffffffffffffffffffffffffffffff16611640565b15611633578373ffffffffffffffffffffffffffffffffffffffff1663150b7a026114f3610cbb565b8786866040518563ffffffff1660e01b81526004016115159493929190611f77565b602060405180830381600087803b15801561152f57600080fd5b505af192505050801561156057506040513d601f19601f8201168201806040525081019061155d91906118f4565b60015b6115e3573d8060008114611590576040519150601f19603f3d011682016040523d82523d6000602084013e611595565b606091505b506000815114156115db576040517f08c379a00000000000000000000000000000000000000000000000000000000081526004016115d290612000565b60405180910390fd5b805181602001fd5b63150b7a0260e01b7bffffffffffffffffffffffffffffffffffffffffffffffffffffffff1916817bffffffffffffffffffffffffffffffffffffffffffffffffffffffff191614915050611638565b600190505b949350505050565b600080823b905060008111915050919050565b60006116666116618461220c565b6121db565b90508281526020810184848401111561167e57600080fd5b6116898482856123ae565b509392505050565b6000813590506116a081612569565b92915050565b6000813590506116b581612580565b92915050565b6000813590506116ca81612597565b92915050565b6000815190506116df81612597565b92915050565b600082601f8301126116f657600080fd5b8135611706848260208601611653565b91505092915050565b60008135905061171e816125ae565b92915050565b60006020828403121561173657600080fd5b600061174484828501611691565b91505092915050565b6000806040838503121561176057600080fd5b600061176e85828601611691565b925050602061177f85828601611691565b9150509250929050565b60008060006060848603121561179e57600080fd5b60006117ac86828701611691565b93505060206117bd86828701611691565b92505060406117ce8682870161170f565b9150509250925092565b600080600080608085870312156117ee57600080fd5b60006117fc87828801611691565b945050602061180d87828801611691565b935050604061181e8782880161170f565b925050606085013567ffffffffffffffff81111561183b57600080fd5b611847878288016116e5565b91505092959194509250565b6000806040838503121561186657600080fd5b600061187485828601611691565b9250506020611885858286016116a6565b9150509250929050565b600080604083850312156118a257600080fd5b60006118b085828601611691565b92505060206118c18582860161170f565b9150509250929050565b6000602082840312156118dd57600080fd5b60006118eb848285016116bb565b91505092915050565b60006020828403121561190657600080fd5b6000611914848285016116d0565b91505092915050565b60006020828403121561192f57600080fd5b600061193d8482850161170f565b91505092915050565b61194f8161233a565b82525050565b61195e8161234c565b82525050565b600061196f8261223c565b6119798185612252565b93506119898185602086016123bd565b61199281612558565b840191505092915050565b60006119a882612247565b6119b28185612263565b93506119c28185602086016123bd565b6119cb81612558565b840191505092915050565b60006119e182612247565b6119eb8185612274565b93506119fb8185602086016123bd565b80840191505092915050565b6000611a14603283612263565b91507f4552433732313a207472616e7366657220746f206e6f6e20455243373231526560008301527f63656976657220696d706c656d656e74657200000000000000000000000000006020830152604082019050919050565b6000611a7a601c83612263565b91507f4552433732313a20746f6b656e20616c7265616479206d696e746564000000006000830152602082019050919050565b6000611aba602483612263565b91507f4552433732313a207472616e7366657220746f20746865207a65726f2061646460008301527f72657373000000000000000000000000000000000000000000000000000000006020830152604082019050919050565b6000611b20601983612263565b91507f4552433732313a20617070726f766520746f2063616c6c6572000000000000006000830152602082019050919050565b6000611b60602c83612263565b91507f4552433732313a206f70657261746f7220717565727920666f72206e6f6e657860008301527f697374656e7420746f6b656e00000000000000000000000000000000000000006020830152604082019050919050565b6000611bc6603883612263565b91507f4552433732313a20617070726f76652063616c6c6572206973206e6f74206f7760008301527f6e6572206e6f7220617070726f76656420666f7220616c6c00000000000000006020830152604082019050919050565b6000611c2c602a83612263565b91507f4552433732313a2062616c616e636520717565727920666f7220746865207a6560008301527f726f2061646472657373000000000000000000000000000000000000000000006020830152604082019050919050565b6000611c92602983612263565b91507f4552433732313a206f776e657220717565727920666f72206e6f6e657869737460008301527f656e7420746f6b656e00000000000000000000000000000000000000000000006020830152604082019050919050565b6000611cf8602083612263565b91507f4552433732313a206d696e7420746f20746865207a65726f20616464726573736000830152602082019050919050565b6000611d38602c83612263565b91507f4552433732313a20617070726f76656420717565727920666f72206e6f6e657860008301527f697374656e7420746f6b656e00000000000000000000000000000000000000006020830152604082019050919050565b6000611d9e602983612263565b91507f4552433732313a207472616e73666572206f6620746f6b656e2074686174206960008301527f73206e6f74206f776e00000000000000000000000000000000000000000000006020830152604082019050919050565b6000611e04602f83612263565b91507f4552433732314d657461646174613a2055524920717565727920666f72206e6f60008301527f6e6578697374656e7420746f6b656e00000000000000000000000000000000006020830152604082019050919050565b6000611e6a602183612263565b91507f4552433732313a20617070726f76616c20746f2063757272656e74206f776e6560008301527f72000000000000000000000000000000000000000000000000000000000000006020830152604082019050919050565b6000611ed0603183612263565b91507f4552433732313a207472616e736665722063616c6c6572206973206e6f74206f60008301527f776e6572206e6f7220617070726f7665640000000000000000000000000000006020830152604082019050919050565b611f32816123a4565b82525050565b6000611f4482856119d6565b9150611f5082846119d6565b91508190509392505050565b6000602082019050611f716000830184611946565b92915050565b6000608082019050611f8c6000830187611946565b611f996020830186611946565b611fa66040830185611f29565b8181036060830152611fb88184611964565b905095945050505050565b6000602082019050611fd86000830184611955565b92915050565b60006020820190508181036000830152611ff8818461199d565b905092915050565b6000602082019050818103600083015261201981611a07565b9050919050565b6000602082019050818103600083015261203981611a6d565b9050919050565b6000602082019050818103600083015261205981611aad565b9050919050565b6000602082019050818103600083015261207981611b13565b9050919050565b6000602082019050818103600083015261209981611b53565b9050919050565b600060208201905081810360008301526120b981611bb9565b9050919050565b600060208201905081810360008301526120d981611c1f565b9050919050565b600060208201905081810360008301526120f981611c85565b9050919050565b6000602082019050818103600083015261211981611ceb565b9050919050565b6000602082019050818103600083015261213981611d2b565b9050919050565b6000602082019050818103600083015261215981611d91565b9050919050565b6000602082019050818103600083015261217981611df7565b9050919050565b6000602082019050818103600083015261219981611e5d565b9050919050565b600060208201905081810360008301526121b981611ec3565b9050919050565b60006020820190506121d56000830184611f29565b92915050565b6000604051905081810181811067ffffffffffffffff8211171561220257612201612529565b5b8060405250919050565b600067ffffffffffffffff82111561222757612226612529565b5b601f19601f8301169050602081019050919050565b600081519050919050565b600081519050919050565b600082825260208201905092915050565b600082825260208201905092915050565b600081905092915050565b600061228a826123a4565b9150612295836123a4565b9250827fffffffffffffffffffffffffffffffffffffffffffffffffffffffffffffffff038211156122ca576122c961249c565b5b828201905092915050565b60006122e0826123a4565b91506122eb836123a4565b9250826122fb576122fa6124cb565b5b828204905092915050565b6000612311826123a4565b915061231c836123a4565b92508282101561232f5761232e61249c565b5b828203905092915050565b600061234582612384565b9050919050565b60008115159050919050565b60007fffffffff0000000000000000000000000000000000000000000000000000000082169050919050565b600073ffffffffffffffffffffffffffffffffffffffff82169050919050565b6000819050919050565b82818337600083830152505050565b60005b838110156123db5780820151818401526020810190506123c0565b838111156123ea576000848401525b50505050565b6000600282049050600182168061240857607f821691505b6020821081141561241c5761241b6124fa565b5b50919050565b600061242d826123a4565b91507fffffffffffffffffffffffffffffffffffffffffffffffffffffffffffffffff8214156124605761245f61249c565b5b600182019050919050565b6000612476826123a4565b9150612481836123a4565b925082612491576124906124cb565b5b828206905092915050565b7f4e487b7100000000000000000000000000000000000000000000000000000000600052601160045260246000fd5b7f4e487b7100000000000000000000000000000000000000000000000000000000600052601260045260246000fd5b7f4e487b7100000000000000000000000000000000000000000000000000000000600052602260045260246000fd5b7f4e487b7100000000000000000000000000000000000000000000000000000000600052604160045260246000fd5b6000601f19601f8301169050919050565b6125728161233a565b811461257d57600080fd5b50565b6125898161234c565b811461259457600080fd5b50565b6125a081612358565b81146125ab57600080fd5b50565b6125b7816123a4565b81146125c257600080fd5b5056fea2646970667358221220947b721aa060c56d4e3c765019a61af7b9801ef17fa03f4ab2100dab7e78877164736f6c63430008000033",
  "linkReferences": {},
  "deployedLinkReferences": {}
}